S020000050726F6A656374344C65646F6E4F66665F726576657273652E7372656391
S113000012C019C018C017C016C015C014C013C040
S113001012C011C010C00FC00EC00DC00CC00BC068
S11300200AC009C008C011241FBECFE5D4E0DEBF5A
S1130030CDBF02D038C0E4CF8FEF87BB61E070E062
S113004080E090E048B39B01082E02C0220F331FCA
S11300500A94E2F7242B28BB2FE33DE043E0215030
S113006030404040E1F700C000000196883091051F
S113007049F787E090E038B3AB01082E02C0440F83
S1130080551F0A94E2F7242F2095232328BB2FE33E
S11300903DE043E0215030404040E1F700C0000023
S10D00A0019749F7CDCFF894FFCF84
S9030000FC
